{"abi":[{"type":"function","name":"appliedTopDownNonce","inputs":[],"outputs":[{"name":"","type":"uint64","internalType":"uint64"}],"stateMutability":"view"},{"type":"function","name":"bottomUpCheckPeriod","inputs":[],"outputs":[{"name":"","type":"uint256","internalType":"uint256"}],"stateMutability":"view"},{"type":"function","name":"bottomUpCheckpoint","inputs":[{"name":"e","type":"uint256","internalType":"uint256"}],"outputs":[{"name":"","type":"tuple","internalType":"struct BottomUpCheckpoint","components":[{"name":"subnetID","type":"tuple","internalType":"struct SubnetID","components":[{"name":"root","type":"uint64","internalType":"uint64"},{"name":"route","type":"address[]","internalType":"address[]"}]},{"name":"blockHeight","type":"uint256","internalType":"uint256"},{"name":"blockHash","type":"bytes32","internalType":"bytes32"},{"name":"nextConfigurationNumber","type":"uint64","internalType":"uint64"},{"name":"msgs","type":"tuple[]","internalType":"struct IpcEnvelope[]","components":[{"name":"kind","type":"uint8","internalType":"enum IpcMsgKind"},{"name":"to","type":"tuple","internalType":"struct IPCAddress","components":[{"name":"subnetId","type":"tuple","internalType":"struct SubnetID","components":[{"name":"root","type":"uint64","internalType":"uint64"},{"name":"route","type":"address[]","internalType":"address[]"}]},{"name":"rawAddress","type":"tuple","internalType":"struct FvmAddress","components":[{"name":"addrType","type":"uint8","internalType":"uint8"},{"name":"payload","type":"bytes","internalType":"bytes"}]}]},{"name":"from","type":"tuple","internalType":"struct IPCAddress","components":[{"name":"subnetId","type":"tuple","internalType":"struct SubnetID","components":[{"name":"root","type":"uint64","internalType":"uint64"},{"name":"route","type":"address[]","internalType":"address[]"}]},{"name":"rawAddress","type":"tuple","internalType":"struct FvmAddress","components":[{"name":"addrType","type":"uint8","internalType":"uint8"},{"name":"payload","type":"bytes","internalType":"bytes"}]}]},{"name":"nonce","type":"uint64","internalType":"uint64"},{"name":"value","type":"uint256","internalType":"uint256"},{"name":"message","type":"bytes","internalType":"bytes"}]}]}],"stateMutability":"view"},{"type":"function","name":"bottomUpMsgBatch","inputs":[{"name":"e","type":"uint256","internalType":"uint256"}],"outputs":[{"name":"","type":"tuple","internalType":"struct BottomUpMsgBatch","components":[{"name":"subnetID","type":"tuple","internalType":"struct SubnetID","components":[{"name":"root","type":"uint64","internalType":"uint64"},{"name":"route","type":"address[]","internalType":"address[]"}]},{"name":"blockHeight","type":"uint256","internalType":"uint256"},{"name":"msgs","type":"tuple[]","internalType":"struct IpcEnvelope[]","components":[{"name":"kind","type":"uint8","internalType":"enum IpcMsgKind"},{"name":"to","type":"tuple","internalType":"struct IPCAddress","components":[{"name":"subnetId","type":"tuple","internalType":"struct SubnetID","components":[{"name":"root","type":"uint64","internalType":"uint64"},{"name":"route","type":"address[]","internalType":"address[]"}]},{"name":"rawAddress","type":"tuple","internalType":"struct FvmAddress","components":[{"name":"addrType","type":"uint8","internalType":"uint8"},{"name":"payload","type":"bytes","internalType":"bytes"}]}]},{"name":"from","type":"tuple","internalType":"struct IPCAddress","components":[{"name":"subnetId","type":"tuple","internalType":"struct SubnetID","components":[{"name":"root","type":"uint64","internalType":"uint64"},{"name":"route","type":"address[]","internalType":"address[]"}]},{"name":"rawAddress","type":"tuple","internalType":"struct FvmAddress","components":[{"name":"addrType","type":"uint8","internalType":"uint8"},{"name":"payload","type":"bytes","internalType":"bytes"}]}]},{"name":"nonce","type":"uint64","internalType":"uint64"},{"name":"value","type":"uint256","internalType":"uint256"},{"name":"message","type":"bytes","internalType":"bytes"}]}]}],"stateMutability":"view"},{"type":"function","name":"bottomUpNonce","inputs":[],"outputs":[{"name":"","type":"uint64","internalType":"uint64"}],"stateMutability":"view"},{"type":"function","name":"getAppliedBottomUpNonce","inputs":[{"name":"subnetId","type":"tuple","internalType":"struct SubnetID","components":[{"name":"root","type":"uint64","internalType":"uint64"},{"name":"route","type":"address[]","internalType":"address[]"}]}],"outputs":[{"name":"","type":"bool","internalType":"bool"},{"name":"","type":"uint64","internalType":"uint64"}],"stateMutability":"view"},{"type":"function","name":"getCheckpointCurrentWeight","inputs":[{"name":"h","type":"uint256","internalType":"uint256"}],"outputs":[{"name":"","type":"uint256","internalType":"uint256"}],"stateMutability":"view"},{"type":"function","name":"getCheckpointInfo","inputs":[{"name":"h","type":"uint256","internalType":"uint256"}],"outputs":[{"name":"","type":"tuple","internalType":"struct QuorumInfo","components":[{"name":"hash","type":"bytes32","internalType":"bytes32"},{"name":"rootHash","type":"bytes32","internalType":"bytes32"},{"name":"threshold","type":"uint256","internalType":"uint256"},{"name":"currentWeight","type":"uint256","internalType":"uint256"},{"name":"reached","type":"bool","internalType":"bool"}]}],"stateMutability":"view"},{"type":"function","name":"getCheckpointRetentionHeight","inputs":[],"outputs":[{"name":"","type":"uint256","internalType":"uint256"}],"stateMutability":"view"},{"type":"function","name":"getCheckpointSignatureBundle","inputs":[{"name":"h","type":"uint256","internalType":"uint256"}],"outputs":[{"name":"ch","type":"tuple","internalType":"struct BottomUpCheckpoint","components":[{"name":"subnetID","type":"tuple","internalType":"struct SubnetID","components":[{"name":"root","type":"uint64","internalType":"uint64"},{"name":"route","type":"address[]","internalType":"address[]"}]},{"name":"blockHeight","type":"uint256","internalType":"uint256"},{"name":"blockHash","type":"bytes32","internalType":"bytes32"},{"name":"nextConfigurationNumber","type":"uint64","internalType":"uint64"},{"name":"msgs","type":"tuple[]","internalType":"struct IpcEnvelope[]","components":[{"name":"kind","type":"uint8","internalType":"enum IpcMsgKind"},{"name":"to","type":"tuple","internalType":"struct IPCAddress","components":[{"name":"subnetId","type":"tuple","internalType":"struct SubnetID","components":[{"name":"root","type":"uint64","internalType":"uint64"},{"name":"route","type":"address[]","internalType":"address[]"}]},{"name":"rawAddress","type":"tuple","internalType":"struct FvmAddress","components":[{"name":"addrType","type":"uint8","internalType":"uint8"},{"name":"payload","type":"bytes","internalType":"bytes"}]}]},{"name":"from","type":"tuple","internalType":"struct IPCAddress","components":[{"name":"subnetId","type":"tuple","internalType":"struct SubnetID","components":[{"name":"root","type":"uint64","internalType":"uint64"},{"name":"route","type":"address[]","internalType":"address[]"}]},{"name":"rawAddress","type":"tuple","internalType":"struct FvmAddress","components":[{"name":"addrType","type":"uint8","internalType":"uint8"},{"name":"payload","type":"bytes","internalType":"bytes"}]}]},{"name":"nonce","type":"uint64","internalType":"uint64"},{"name":"value","type":"uint256","internalType":"uint256"},{"name":"message","type":"bytes","internalType":"bytes"}]}]},{"name":"info","type":"tuple","internalType":"struct QuorumInfo","components":[{"name":"hash","type":"bytes32","internalType":"bytes32"},{"name":"rootHash","type":"bytes32","internalType":"bytes32"},{"name":"threshold","type":"uint256","internalType":"uint256"},{"name":"currentWeight","type":"uint256","internalType":"uint256"},{"name":"reached","type":"bool","internalType":"bool"}]},{"name":"signatories","type":"address[]","internalType":"address[]"},{"name":"signatures","type":"bytes[]","internalType":"bytes[]"}],"stateMutability":"view"},{"type":"function","name":"getCommitSha","inputs":[],"outputs":[{"name":"","type":"bytes32","internalType":"bytes32"}],"stateMutability":"view"},{"type":"function","name":"getCurrentBottomUpCheckpoint","inputs":[],"outputs":[{"name":"exists","type":"bool","internalType":"bool"},{"name":"epoch","type":"uint256","internalType":"uint256"},{"name":"checkpoint","type":"tuple","internalType":"struct BottomUpCheckpoint","components":[{"name":"subnetID","type":"tuple","internalType":"struct SubnetID","components":[{"name":"root","type":"uint64","internalType":"uint64"},{"name":"route","type":"address[]","internalType":"address[]"}]},{"name":"blockHeight","type":"uint256","internalType":"uint256"},{"name":"blockHash","type":"bytes32","internalType":"bytes32"},{"name":"nextConfigurationNumber","type":"uint64","internalType":"uint64"},{"name":"msgs","type":"tuple[]","internalType":"struct IpcEnvelope[]","components":[{"name":"kind","type":"uint8","internalType":"enum IpcMsgKind"},{"name":"to","type":"tuple","internalType":"struct IPCAddress","components":[{"name":"subnetId","type":"tuple","internalType":"struct SubnetID","components":[{"name":"root","type":"uint64","internalType":"uint64"},{"name":"route","type":"address[]","internalType":"address[]"}]},{"name":"rawAddress","type":"tuple","internalType":"struct FvmAddress","components":[{"name":"addrType","type":"uint8","internalType":"uint8"},{"name":"payload","type":"bytes","internalType":"bytes"}]}]},{"name":"from","type":"tuple","internalType":"struct IPCAddress","components":[{"name":"subnetId","type":"tuple","internalType":"struct SubnetID","components":[{"name":"root","type":"uint64","internalType":"uint64"},{"name":"route","type":"address[]","internalType":"address[]"}]},{"name":"rawAddress","type":"tuple","internalType":"struct FvmAddress","components":[{"name":"addrType","type":"uint8","internalType":"uint8"},{"name":"payload","type":"bytes","internalType":"bytes"}]}]},{"name":"nonce","type":"uint64","internalType":"uint64"},{"name":"value","type":"uint256","internalType":"uint256"},{"name":"message","type":"bytes","internalType":"bytes"}]}]}],"stateMutability":"view"},{"type":"function","name":"getCurrentConfigurationNumber","inputs":[],"outputs":[{"name":"","type":"uint64","internalType":"uint64"}],"stateMutability":"view"},{"type":"function","name":"getCurrentMembership","inputs":[],"outputs":[{"name":"","type":"tuple","internalType":"struct Membership","components":[{"name":"validators","type":"tuple[]","internalType":"struct Validator[]","components":[{"name":"weight","type":"uint256","internalType":"uint256"},{"name":"addr","type":"address","internalType":"address"},{"name":"metadata","type":"bytes","internalType":"bytes"}]},{"name":"configurationNumber","type":"uint64","internalType":"uint64"}]}],"stateMutability":"view"},{"type":"function","name":"getIncompleteCheckpointHeights","inputs":[],"outputs":[{"name":"","type":"uint256[]","internalType":"uint256[]"}],"stateMutability":"view"},{"type":"function","name":"getIncompleteCheckpoints","inputs":[],"outputs":[{"name":"","type":"tuple[]","internalType":"struct BottomUpCheckpoint[]","components":[{"name":"subnetID","type":"tuple","internalType":"struct SubnetID","components":[{"name":"root","type":"uint64","internalType":"uint64"},{"name":"route","type":"address[]","internalType":"address[]"}]},{"name":"blockHeight","type":"uint256","internalType":"uint256"},{"name":"blockHash","type":"bytes32","internalType":"bytes32"},{"name":"nextConfigurationNumber","type":"uint64","internalType":"uint64"},{"name":"msgs","type":"tuple[]","internalType":"struct IpcEnvelope[]","components":[{"name":"kind","type":"uint8","internalType":"enum IpcMsgKind"},{"name":"to","type":"tuple","internalType":"struct IPCAddress","components":[{"name":"subnetId","type":"tuple","internalType":"struct SubnetID","components":[{"name":"root","type":"uint64","internalType":"uint64"},{"name":"route","type":"address[]","internalType":"address[]"}]},{"name":"rawAddress","type":"tuple","internalType":"struct FvmAddress","components":[{"name":"addrType","type":"uint8","internalType":"uint8"},{"name":"payload","type":"bytes","internalType":"bytes"}]}]},{"name":"from","type":"tuple","internalType":"struct IPCAddress","components":[{"name":"subnetId","type":"tuple","internalType":"struct SubnetID","components":[{"name":"root","type":"uint64","internalType":"uint64"},{"name":"route","type":"address[]","internalType":"address[]"}]},{"name":"rawAddress","type":"tuple","internalType":"struct FvmAddress","components":[{"name":"addrType","type":"uint8","internalType":"uint8"},{"name":"payload","type":"bytes","internalType":"bytes"}]}]},{"name":"nonce","type":"uint64","internalType":"uint64"},{"name":"value","type":"uint256","internalType":"uint256"},{"name":"message","type":"bytes","internalType":"bytes"}]}]}],"stateMutability":"view"},{"type":"function","name":"getLastConfigurationNumber","inputs":[],"outputs":[{"name":"","type":"uint64","internalType":"uint64"}],"stateMutability":"view"},{"type":"function","name":"getLastMembership","inputs":[],"outputs":[{"name":"","type":"tuple","internalType":"struct Membership","components":[{"name":"validators","type":"tuple[]","internalType":"struct Validator[]","components":[{"name":"weight","type":"uint256","internalType":"uint256"},{"name":"addr","type":"address","internalType":"address"},{"name":"metadata","type":"bytes","internalType":"bytes"}]},{"name":"configurationNumber","type":"uint64","internalType":"uint64"}]}],"stateMutability":"view"},{"type":"function","name":"getLatestParentFinality","inputs":[],"outputs":[{"name":"","type":"tuple","internalType":"struct ParentFinality","components":[{"name":"height","type":"uint256","internalType":"uint256"},{"name":"blockHash","type":"bytes32","internalType":"bytes32"}]}],"stateMutability":"view"},{"type":"function","name":"getNetworkName","inputs":[],"outputs":[{"name":"","type":"tuple","internalType":"struct SubnetID","components":[{"name":"root","type":"uint64","internalType":"uint64"},{"name":"route","type":"address[]","internalType":"address[]"}]}],"stateMutability":"view"},{"type":"function","name":"getParentFinality","inputs":[{"name":"blockNumber","type":"uint256","internalType":"uint256"}],"outputs":[{"name":"","type":"tuple","internalType":"struct ParentFinality","components":[{"name":"height","type":"uint256","internalType":"uint256"},{"name":"blockHash","type":"bytes32","internalType":"bytes32"}]}],"stateMutability":"view"},{"type":"function","name":"getQuorumThreshold","inputs":[{"name":"totalWeight","type":"uint256","internalType":"uint256"}],"outputs":[{"name":"","type":"uint256","internalType":"uint256"}],"stateMutability":"view"},{"type":"function","name":"getSubnet","inputs":[{"name":"subnetId","type":"tuple","internalType":"struct SubnetID","components":[{"name":"root","type":"uint64","internalType":"uint64"},{"name":"route","type":"address[]","internalType":"address[]"}]}],"outputs":[{"name":"","type":"bool","internalType":"bool"},{"name":"","type":"tuple","internalType":"struct Subnet","components":[{"name":"stake","type":"uint256","internalType":"uint256"},{"name":"genesisEpoch","type":"uint256","internalType":"uint256"},{"name":"circSupply","type":"uint256","internalType":"uint256"},{"name":"topDownNonce","type":"uint64","internalType":"uint64"},{"name":"appliedBottomUpNonce","type":"uint64","internalType":"uint64"},{"name":"id","type":"tuple","internalType":"struct SubnetID","components":[{"name":"root","type":"uint64","internalType":"uint64"},{"name":"route","type":"address[]","internalType":"address[]"}]}]}],"stateMutability":"view"},{"type":"function","name":"getSubnetKeys","inputs":[],"outputs":[{"name":"","type":"bytes32[]","internalType":"bytes32[]"}],"stateMutability":"view"},{"type":"function","name":"getSubnetTopDownMsgsLength","inputs":[{"name":"subnetId","type":"tuple","internalType":"struct SubnetID","components":[{"name":"root","type":"uint64","internalType":"uint64"},{"name":"route","type":"address[]","internalType":"address[]"}]}],"outputs":[{"name":"","type":"uint256","internalType":"uint256"}],"stateMutability":"view"},{"type":"function","name":"getTopDownNonce","inputs":[{"name":"subnetId","type":"tuple","internalType":"struct SubnetID","components":[{"name":"root","type":"uint64","internalType":"uint64"},{"name":"route","type":"address[]","internalType":"address[]"}]}],"outputs":[{"name":"","type":"bool","internalType":"bool"},{"name":"","type":"uint64","internalType":"uint64"}],"stateMutability":"view"},{"type":"function","name":"listSubnets","inputs":[],"outputs":[{"name":"","type":"tuple[]","internalType":"struct Subnet[]","components":[{"name":"stake","type":"uint256","internalType":"uint256"},{"name":"genesisEpoch","type":"uint256","internalType":"uint256"},{"name":"circSupply","type":"uint256","internalType":"uint256"},{"name":"topDownNonce","type":"uint64","internalType":"uint64"},{"name":"appliedBottomUpNonce","type":"uint64","internalType":"uint64"},{"name":"id","type":"tuple","internalType":"struct SubnetID","components":[{"name":"root","type":"uint64","internalType":"uint64"},{"name":"route","type":"address[]","internalType":"address[]"}]}]}],"stateMutability":"view"},{"type":"function","name":"majorityPercentage","inputs":[],"outputs":[{"name":"","type":"uint64","internalType":"uint64"}],"stateMutability":"view"},{"type":"function","name":"maxMsgsPerBottomUpBatch","inputs":[],"outputs":[{"name":"","type":"uint64","internalType":"uint64"}],"stateMutability":"view"},{"type":"function","name":"postbox","inputs":[{"name":"id","type":"bytes32","internalType":"bytes32"}],"outputs":[{"name":"storableMsg","type":"tuple","internalType":"struct IpcEnvelope","components":[{"name":"kind","type":"uint8","internalType":"enum IpcMsgKind"},{"name":"to","type":"tuple","internalType":"struct IPCAddress","components":[{"name":"subnetId","type":"tuple","internalType":"struct SubnetID","components":[{"name":"root","type":"uint64","internalType":"uint64"},{"name":"route","type":"address[]","internalType":"address[]"}]},{"name":"rawAddress","type":"tuple","internalType":"struct FvmAddress","components":[{"name":"addrType","type":"uint8","internalType":"uint8"},{"name":"payload","type":"bytes","internalType":"bytes"}]}]},{"name":"from","type":"tuple","internalType":"struct IPCAddress","components":[{"name":"subnetId","type":"tuple","internalType":"struct SubnetID","components":[{"name":"root","type":"uint64","internalType":"uint64"},{"name":"route","type":"address[]","internalType":"address[]"}]},{"name":"rawAddress","type":"tuple","internalType":"struct FvmAddress","components":[{"name":"addrType","type":"uint8","internalType":"uint8"},{"name":"payload","type":"bytes","internalType":"bytes"}]}]},{"name":"nonce","type":"uint64","internalType":"uint64"},{"name":"value","type":"uint256","internalType":"uint256"},{"name":"message","type":"bytes","internalType":"bytes"}]}],"stateMutability":"view"},{"type":"function","name":"subnets","inputs":[{"name":"h","type":"bytes32","internalType":"bytes32"}],"outputs":[{"name":"subnet","type":"tuple","internalType":"struct Subnet","components":[{"name":"stake","type":"uint256","internalType":"uint256"},{"name":"genesisEpoch","type":"uint256","internalType":"uint256"},{"name":"circSupply","type":"uint256","internalType":"uint256"},{"name":"topDownNonce","type":"uint64","internalType":"uint64"},{"name":"appliedBottomUpNonce","type":"uint64","internalType":"uint64"},{"name":"id","type":"tuple","internalType":"struct SubnetID","components":[{"name":"root","type":"uint64","internalType":"uint64"},{"name":"route","type":"address[]","internalType":"address[]"}]}]}],"stateMutability":"view"},{"type":"function","name":"totalSubnets","inputs":[],"outputs":[{"name":"","type":"uint64","internalType":"uint64"}],"stateMutability":"view"}],"bytecode":{"object":"0x6080806040523461001657611dea908161001c8239f35b600080fdfe6080604052600436101561001257600080fd5b60003560e01c806302e30f9a1461128f5780630338150f1461124657806305aff0b31461122557806306572c1a146111f657806306c46853146111d85780632da5794a146111485780633594c3c11461109257806338d669321461107c57806341b6a2e81461105557806342398a9a14611022578063444ead51146110045780634aa8f8a514610fe6578063544dddff14610fbf578063599c7bd114610f9e5780635d02968514610e7a5780636ad21bb014610d9b5780637edeac9214610d4a5780638789f83b14610d205780638cfd78e714610ca357806394074b0314610be15780639704276614610a845780639d3070b514610a3f578063a2b6715814610a15578063a517218f146109b7578063ac12d76314610915578063b1ba49b0146108ee578063b3ab3f74146108bf578063c66c66a11461086c578063ca41d5ce14610496578063d6c5c39714610316578063dd81b5cf146102645763f32291311461017c57600080fd5b3461025f57600036600319011261025f57610195611b21565b506040516101a281611661565b600954906101af8261169d565b916101bd604051938461167c565b8083526009600090815260207f6e1540171b6c0c960b71a7020d9f60077f6af931a8bbf590da0223dacf75c7af8186015b84841061021b57868652600a546001600160401b0316602087015260405180610217888261156d565b0390f35b60038360019260405161022d81611646565b85548152848060a01b0385870154168382015261024c600287016118bc565b60408201528152019201930192906101ee565b600080fd5b3461025f5760208060031936011261025f57606090816040805161028781611646565b61028f61175d565b81526000848201520152600435600052602381526102176040600020604051926102b884611646565b6102c1826117b4565b84526102fd6102dd600360028501549484880195865201611a43565b9160408601928352604051968796828852519187015260808601906112d8565b9151604085015251838203601f1901606085015261148e565b3461025f57600036600319011261025f5761032f611888565b50610338611888565b506001546001600160401b03908015610480578082431604906001820180921161046a5761036591611b95565b806000526103db602092602284526103b9600560406000206040519361038a85611610565b610393826117b4565b855260028201548886015260038201546040860152600482015416606085015201611a43565b608082015283815160405180948192630c133d1360e31b835260048301611ba8565b038173__$a0fe38a9a81205afccc10810b09a4d3f45$__5af491821561045e57600092610426575b5061021791926040519485941585528401526060604084015260608301906114eb565b91508382813d8311610457575b61043d818361167c565b8101031261025f5761045161021792611b88565b91610403565b503d610433565b6040513d6000823e3d90fd5b634e487b7160e01b600052601160045260246000fd5b634e487b7160e01b600052601260045260246000fd5b3461025f57602036600319011261025f576004356104b2611888565b506104bb611b5d565b508060005260226020526040600020906105156005604051936104dd85611610565b6104e6816117b4565b855260028101546020860152600381015460408601526001600160401b03600482015416606086015201611a43565b6080830152604051906308a6ad2560e01b8252600b6004830152602482015260008160448173__$dd40c2ca5826d197ed7e2b6aae8146ec7b$__5af490811561045e576000809160009361065d575b50906105839392916105b86040519586956101008088528701906114eb565b916020860190608080918051845260208101516020850152604081015160408501526060810151606085015201511515910152565b83810360c08501526020808351928381520192019060005b81811061063b5750505082810360e0840152815180825260208201916020808360051b8301019401926000915b83831061060a5786860387f35b919395509193602080610629600193601f1986820301875289516113a7565b970193019301909286959492936105fd565b82516001600160a01b03168452869550602093840193909201916001016105d0565b925050503d806000833e610671818361167c565b818181010360e0811261025f5760a01361025f5760405161069181611610565b825181526020830151602082015260408301516040820152606083015160608201526106bf60808401611b88565b608082015260a08301516001600160401b03811161025f57830192828101601f8501121561025f5783516106f28161169d565b94610700604051968761167c565b81865260208087019260051b82010190858401821161025f57602001915b81831061084c5750505060c08101516001600160401b03811161025f57838201601f82840101121561025f5780820151906107588261169d565b94610766604051968761167c565b828652602086019080850160208560051b85880101011161025f57602083860101915b60208560051b858801010183106107a95750505050505091909184610564565b82516001600160401b03811161025f57828701603f82878a010101121561025f576020818689010101516001600160401b03811161083657604051926107f9601f8301601f19166020018561167c565b818452848901604083858a8d010101011161025f5783610829602095938b604088978c8980990193010101611384565b8152019301929050610789565b634e487b7160e01b600052604160045260246000fd5b82516001600160a01b038116810361025f5781526020928301920161071e565b3461025f576108a06108986108936108833661153c565b61088b611777565b5036906116b4565b611c07565b919091611835565b9061021760405192839215158352604060208401526040830190611330565b3461025f57602036600319011261025f57600435600052600d6020526020600360406000200154604051908152f35b3461025f57600036600319011261025f5760206001600160401b03600a5416604051908152f35b3461025f57602036600319011261025f5761092e611b5d565b50600435600052600d60205260a0604060002060ff60046040519261095284611610565b80548452600181015460208501526002810154604085015260038101546060850152015416151560808201526109b56040518092608080918051845260208101516020850152604081015160408501526060810151606085015201511515910152565bf35b3461025f57600036600319011261025f576109d0611d46565b6040518091602080830160208452825180915260206040850193019160005b8281106109fe57505050500390f35b8351855286955093810193928101926001016109ef565b3461025f57600036600319011261025f5760206001600160401b0360035460801c16604051908152f35b3461025f57602036600319011261025f576004356001600160401b0380821161025f576003610a7761089360209436906004016116b4565b9050015416604051908152f35b3461025f57600036600319011261025f57610a9d611d46565b805190610aa98261169d565b610ab6604051918261167c565b828152610ac28361169d565b60209390601f19018460005b828110610bcb5750505060005b6001600160401b039081811683811015610b6d5790610b6582610b0060019489611af7565b51600052602289526040600020610b4f600560405192610b1f84611610565b610b28816117b4565b845260028101548d8501526003810154604085015288600482015416606085015201611a43565b6080820152610b5e8289611af7565b5286611af7565b500116610adb565b604080518881528651818a01819052600092600582901b8301810191898c01918c9085015b828710610b9f5785850386f35b909192938280610bbb600193603f198a820301865288516114eb565b9601920196019592919092610b92565b610bd3611888565b828287010152018590610ace565b3461025f57600036600319011261025f57610bfa61175d565b50604051610c0781611661565b6001600160401b0360125416815260405190816013549283815260208091019360136000527f66de8ffda797e3de9c05e8fc57b3bf0ec28a930d40b0d285d93c06501cf6a090916000905b828210610c83576102178686610c6a818b038261167c565b60208201526040519182916020835260208301906112d8565b83546001600160a01b031687529586019560019384019390910190610c52565b3461025f57602036600319011261025f57606060a0604051610cc48161162b565b60008152610cd0611b3b565b6020820152610cdd611b3b565b60408201526000838201526000608082015201526004356000526021602052610217610d0c60406000206119d5565b604051918291602083526020830190611408565b3461025f57600036600319011261025f5760206001600160401b0360035460401c16604051908152f35b3461025f57602036600319011261025f5760006020604051610d6b81611661565b8281520152610217610d7e600435611d08565b604051918291829190916020806040830194805184520151910152565b3461025f57600036600319011261025f57610db4611b21565b50604051610dc181611661565b60075490610dce8261169d565b91610ddc604051938461167c565b8083526007600090815260207fa66cc928b5edb82af9bd49922954155ab7b0942694bea4ce44661d9a8736c6888186015b848410610e36578686526008546001600160401b0316602087015260405180610217888261156d565b600383600192604051610e4881611646565b85548152848060a01b03858701541683820152610e67600287016118bc565b6040820152815201920193019290610e0d565b3461025f57600036600319011261025f57602454610e978161169d565b610ea4604051918261167c565b818152610eb08261169d565b60209290601f19018360005b828110610f885750505060005b818110610f315750506040519082820192808352815180945260408301938160408260051b8601019301916000955b828710610f055785850386f35b909192938280610f21600193603f198a82030186528851611330565b9601920196019592919092610ef8565b806001917f7cd332d19b93bcabe3cce7ca0c18a052f57e5fd03b4758a09f30f5ddc4b22ec40154600052601f8552610f6c6040600020611835565b610f768286611af7565b52610f818185611af7565b5001610ec9565b610f90611777565b828287010152018490610ebc565b3461025f57600036600319011261025f57602060ff60045416604051908152f35b3461025f57600036600319011261025f5760206001600160401b0360085416604051908152f35b3461025f57600036600319011261025f576020600c54604051908152f35b3461025f57600036600319011261025f576020600554604051908152f35b3461025f576110386110333661153c565b611ace565b6040805192151583526001600160401b0391909116602083015290f35b3461025f57600036600319011261025f5760206001600160401b0360035416604051908152f35b3461025f5761103861108d3661153c565b611a99565b3461025f57600036600319011261025f57604051806024548083526020809301809160246000527f7cd332d19b93bcabe3cce7ca0c18a052f57e5fd03b4758a09f30f5ddc4b22ec49060005b868282106111345786866110f48288038361167c565b604051928392818401908285525180915260408401929160005b82811061111d57505050500390f35b83518552869550938101939281019260010161110e565b8354855290930192600192830192016110de565b3461025f57602036600319011261025f57611161611888565b50600435600052602260205261021760406000206111bf60056040519261118784611610565b611190816117b4565b845260028101546020850152600381015460408501526001600160401b03600482015416606085015201611a43565b60808201526040519182916020835260208301906114eb565b3461025f57600036600319011261025f576020600154604051908152f35b3461025f57602036600319011261025f576020606461121c60ff60045416600435611b95565b04604051908152f35b3461025f57600036600319011261025f57602060035460c01c604051908152f35b3461025f57600036600319011261025f576000602060405161126781611661565b82815201526000602060405161127c81611661565b8281520152610217610d7e600054611d08565b3461025f57602036600319011261025f576112a8611777565b50600435600052601f6020526102176112c46040600020611835565b604051918291602083526020830190611330565b604082016001600160401b0382511683526020606081809401519460408382015285518094520193019160005b828110611313575050505090565b83516001600160a01b031685529381019392810192600101611305565b9060c060a06113819380518452602081015160208501526040810151604085015260608101516001600160401b03809116606086015260808201511660808501520151918160a082015201906112d8565b90565b60005b8381106113975750506000910152565b8181015183820152602001611387565b906020916113c081518092818552858086019101611384565b601f01601f1916010190565b6040602061138193816113e68551858452858401906112d8565b940151908281860391015260ff815116845201519181602082015201906113a7565b80519160038310156114785761138192815260a061144a611438602085015160c0602086015260c08501906113cc565b604085015184820360408601526113cc565b926001600160401b0360608201511660608401526080810151608084015201519060a08184039101526113a7565b634e487b7160e01b600052602160045260246000fd5b90808251908181526020809101926020808460051b8301019501936000915b8483106114bd5750505050505090565b90919293949584806114db600193601f198682030187528a51611408565b98019301930191949392906114ad565b611381916080611504835160a0845260a08401906112d8565b9260208101516020840152604081015160408401526001600160401b036060820151166060840152015190608081840391015261148e565b6003199060208183011261025f57600435916001600160401b03831161025f578260409203011261025f5760040190565b602080825260609260608301938151946040916040858701528651809252608086018560808460051b8901019801936000925b8484106115c2575050505050506040916001600160401b039101511691015290565b909192939498878061160060019385878f8f607f19908503018b525180518452878060a01b03868201511686850152015191818982015201906113a7565b9b019401940192949391906115a0565b60a081019081106001600160401b0382111761083657604052565b60c081019081106001600160401b0382111761083657604052565b606081019081106001600160401b0382111761083657604052565b604081019081106001600160401b0382111761083657604052565b90601f801991011681019081106001600160401b0382111761083657604052565b6001600160401b0381116108365760051b60200190565b919060408382031261025f57604051926116cd84611661565b836001600160401b038235818116810361025f5782526020928381013591821161025f57019280601f8501121561025f5783356117098161169d565b94611717604051968761167c565b818652848087019260051b82010192831161025f578401905b82821061173e575050500152565b81356001600160a01b038116810361025f578152908401908401611730565b6040519061176a82611661565b6060602083600081520152565b604051906117848261162b565b81600081526000602082015260006040820152600060608201526000608082015260a06117af61175d565b910152565b90604051916117c283611661565b826001600160401b0382541681526001809201916040519283849282548083526020809301936000526020600020926000905b8282106118145750505050506020929161181091038461167c565b0152565b84546001600160a01b031686528896509485019493830193908301906117f5565b906040516118428161162b565b60a06117af6004839580548552600181015460208601526002810154604086015260038101546001600160401b0390818116606088015260401c166080860152016117b4565b6040519061189582611610565b60606080836118a261175d565b815260006020820152600060408201526000838201520152565b9060405190600083549060018260011c9060018416968715611985575b6020948584108914611971578798848997989952908160001461194f5750600114611910575b50505061190e9250038361167c565b565b600090815285812095935091905b81831061193757505061190e93508201013880806118ff565b8554888401850152948501948794509183019161191e565b9250505061190e94925060ff191682840152151560051b8201013880806118ff565b634e487b7160e01b85526022600452602485fd5b91607f16916118d9565b906040519161199d83611661565b6020836119a9836117b4565b81526119cd6003604051946119bd86611661565b60ff6002820154168652016118bc565b828401520152565b906040516119e28161162b565b809260ff81541690600382101561147857600b6117af9160a0938552611a0a6001820161198f565b6020860152611a1b6005820161198f565b60408601526001600160401b036009820154166060860152600a8101546080860152016118bc565b908154611a4f8161169d565b92611a5d604051948561167c565b818452600090815260208082208186015b848410611a7c575050505050565b600c83600192611a8b856119d5565b815201920193019290611a6e565b610893611aa79136906116b4565b9015611ac55760036001600160401b0391015460401c169060019190565b50600090600090565b610893611adc9136906116b4565b9015611ac55760036001600160401b03910154169060019190565b8051821015611b0b5760209160051b010190565b634e487b7160e01b600052603260045260246000fd5b60405190611b2e82611661565b6000602083606081520152565b60405190611b4882611661565b81611b5161175d565b815260206117af61175d565b60405190611b6a82611610565b60006080838281528260208201528260408201528260608201520152565b5190811515820361025f57565b8181029291811591840414171561046a57565b906020908183528160808160608601936001600160401b038151168288015201519460408082015285518094520193019160005b828110611bea575050505090565b83516001600160a01b031685529381019392810192600101611bdc565b611c3e73__$a0fe38a9a81205afccc10810b09a4d3f45$__91604051906390ba52cf60e01b82528180602094859360048301611ba8565b0381865af490811561045e57600091611cdb575b50600052601f8152611c8c81604060002093611c70600486016117b4565b906040518080958194630c133d1360e31b835260048301611ba8565b03915af491821561045e57600092611ca5575b50501591565b90809250813d8311611cd4575b611cbc818361167c565b8101031261025f57611ccd90611b88565b3880611c9f565b503d611cb2565b90508181813d8311611d01575b611cf2818361167c565b8101031261025f575138611c52565b503d611ce8565b60006020604051611d1881611661565b8281520152600052602080526040600020600160405191611d3883611661565b805483520154602082015290565b60405190600e54808352826020916020820190600e6000527fbb7b4a454dc3493923482f07822329ed19e8244eff582cc204f8554c3620c3fd936000905b828210611d9a5750505061190e9250038361167c565b855484526001958601958895509381019390910190611d8456fea2646970667358221220d23a4bb6bf66050e11af5cef186a788cb6a1dec5cc3231f0ffd9727d00c6533064736f6c63430008180033","linkReferences":{"src/lib/LibQuorum.sol":{"LibQuorum":[{"start":1368,"length":20}]},"src/lib/SubnetIDHelper.sol":{"SubnetIDHelper":[{"start":1019,"length":20},{"start":7208,"length":20}]}}},"methodIdentifiers":{"appliedTopDownNonce()":"8789f83b","bottomUpCheckPeriod()":"06c46853","bottomUpCheckpoint(uint256)":"2da5794a","bottomUpMsgBatch(uint256)":"dd81b5cf","bottomUpNonce()":"41b6a2e8","getAppliedBottomUpNonce((uint64,address[]))":"38d66932","getCheckpointCurrentWeight(uint256)":"b3ab3f74","getCheckpointInfo(uint256)":"ac12d763","getCheckpointRetentionHeight()":"4aa8f8a5","getCheckpointSignatureBundle(uint256)":"ca41d5ce","getCommitSha()":"444ead51","getCurrentBottomUpCheckpoint()":"d6c5c397","getCurrentConfigurationNumber()":"544dddff","getCurrentMembership()":"6ad21bb0","getIncompleteCheckpointHeights()":"a517218f","getIncompleteCheckpoints()":"97042766","getLastConfigurationNumber()":"b1ba49b0","getLastMembership()":"f3229131","getLatestParentFinality()":"0338150f","getNetworkName()":"94074b03","getParentFinality(uint256)":"7edeac92","getQuorumThreshold(uint256)":"06572c1a","getSubnet((uint64,address[]))":"c66c66a1","getSubnetKeys()":"3594c3c1","getSubnetTopDownMsgsLength((uint64,address[]))":"9d3070b5","getTopDownNonce((uint64,address[]))":"42398a9a","listSubnets()":"5d029685","majorityPercentage()":"599c7bd1","maxMsgsPerBottomUpBatch()":"05aff0b3","postbox(bytes32)":"8cfd78e7","subnets(bytes32)":"02e30f9a","totalSubnets()":"a2b67158"},"id":59}